{
  "contractName": "Stamina",
  "abi": [
    {
      "inputs": [],
      "stateMutability": "nonpayable",
      "type": "constructor"
    },
    {
      "anonymous": false,
      "inputs": [
        {
          "indexed": false,
          "internalType": "bytes32",
          "name": "txt",
          "type": "bytes32"
        },
        {
          "indexed": false,
          "internalType": "uint256",
          "name": "lineNumber",
          "type": "uint256"
        }
      ],
      "name": "LogEvent",
      "type": "event"
    },
    {
      "anonymous": false,
      "inputs": [
        {
          "indexed": true,
          "internalType": "address",
          "name": "previousOwner",
          "type": "address"
        },
        {
          "indexed": true,
          "internalType": "address",
          "name": "newOwner",
          "type": "address"
        }
      ],
      "name": "OwnershipTransferred",
      "type": "event"
    },
    {
      "anonymous": false,
      "inputs": [
        {
          "indexed": true,
          "internalType": "address",
          "name": "player",
          "type": "address"
        },
        {
          "indexed": true,
          "internalType": "uint256",
          "name": "round",
          "type": "uint256"
        },
        {
          "indexed": false,
          "internalType": "uint256",
          "name": "amount",
          "type": "uint256"
        }
      ],
      "name": "StakeEvent",
      "type": "event"
    },
    {
      "inputs": [],
      "name": "activeRound",
      "outputs": [
        {
          "internalType": "uint256",
          "name": "",
          "type": "uint256"
        }
      ],
      "stateMutability": "view",
      "type": "function"
    },
    {
      "inputs": [],
      "name": "owner",
      "outputs": [
        {
          "internalType": "address",
          "name": "",
          "type": "address"
        }
      ],
      "stateMutability": "view",
      "type": "function"
    },
    {
      "inputs": [],
      "name": "renounceOwnership",
      "outputs": [],
      "stateMutability": "nonpayable",
      "type": "function"
    },
    {
      "inputs": [
        {
          "internalType": "uint256",
          "name": "",
          "type": "uint256"
        },
        {
          "internalType": "uint256",
          "name": "",
          "type": "uint256"
        }
      ],
      "name": "roundDayStakeBalance",
      "outputs": [
        {
          "internalType": "uint256",
          "name": "",
          "type": "uint256"
        }
      ],
      "stateMutability": "view",
      "type": "function"
    },
    {
      "inputs": [],
      "name": "roundEnd",
      "outputs": [
        {
          "internalType": "uint256",
          "name": "",
          "type": "uint256"
        }
      ],
      "stateMutability": "view",
      "type": "function"
    },
    {
      "inputs": [],
      "name": "roundLength",
      "outputs": [
        {
          "internalType": "uint256",
          "name": "",
          "type": "uint256"
        }
      ],
      "stateMutability": "view",
      "type": "function"
    },
    {
      "inputs": [
        {
          "internalType": "address",
          "name": "newOwner",
          "type": "address"
        }
      ],
      "name": "transferOwnership",
      "outputs": [],
      "stateMutability": "nonpayable",
      "type": "function"
    },
    {
      "inputs": [],
      "name": "stake",
      "outputs": [],
      "stateMutability": "payable",
      "type": "function"
    },
    {
      "inputs": [
        {
          "internalType": "uint256",
          "name": "roundNum",
          "type": "uint256"
        },
        {
          "internalType": "address",
          "name": "player",
          "type": "address"
        }
      ],
      "name": "playerRoundWinnings",
      "outputs": [],
      "stateMutability": "view",
      "type": "function"
    }
  ],
  "bytecode": "0x608060405234801561001057600080fd5b5060006100216100e160201b60201c565b9050806000806101000a81548173ffffffffffffffffffffffffffffffffffffffff021916908373ffffffffffffffffffffffffffffffffffffffff1602179055508073ffffffffffffffffffffffffffffffffffffffff16600073ffffffffffffffffffffffffffffffffffffffff167f8be0079c531659141344cd1fd0a4f28419497f9722a3daafe3b4186f6b6457e060405160405180910390a35062127500600181905550600154420160028190555060016003819055506100e9565b600033905090565b610eb5806100f86000396000f3fe6080604052600436106100865760003560e01c80638da5cb5b116100595780638da5cb5b14610102578063a0ce670f1461012d578063c02e580e1461016a578063eb611b8514610195578063f2fde38b146101be57610086565b806311f0281e1461008b5780633a4b66f1146100b6578063715018a6146100c05780638b649b94146100d7575b600080fd5b34801561009757600080fd5b506100a06101e7565b6040516100ad9190610d9a565b60405180910390f35b6100be6101ed565b005b3480156100cc57600080fd5b506100d56105ae565b005b3480156100e357600080fd5b506100ec610703565b6040516100f99190610d9a565b60405180910390f35b34801561010e57600080fd5b50610117610709565b6040516101249190610cdd565b60405180910390f35b34801561013957600080fd5b50610154600480360361014f9190810190610b24565b610732565b6040516101619190610d9a565b60405180910390f35b34801561017657600080fd5b5061017f610757565b60405161018c9190610d9a565b60405180910390f35b3480156101a157600080fd5b506101bc60048036036101b79190810190610ae8565b61075d565b005b3480156101ca57600080fd5b506101e560048036036101e09190810190610abf565b610761565b005b60035481565b6000341015610231576040517f08c379a000000000000000000000000000000000000000000000000000000000815260040161022890610d5a565b60405180910390fd5b610239610925565b600033905060008061024961095a565b9050600060018203905061025b610a74565b60056000600354815260200190815260200160002060008673ffffffffffffffffffffffffffffffffffffffff1673ffffffffffffffffffffffffffffffffffffffff1681526020019081526020016000206000838152602001908152602001600020604051806060016040529081600082015481526020016001820154815260200160028201548152505090506102f1610a74565b60056000600354815260200190815260200160002060008773ffffffffffffffffffffffffffffffffffffffff1673ffffffffffffffffffffffffffffffffffffffff16815260200190815260200160002060008581526020019081526020016000206040518060600160405290816000820154815260200160018201548152602001600282015481525050905060008260200151118015610397575060008160200151115b156103b0573481604001518360400151010194506103ec565b6000826020015111156103cb573482604001510194506103eb565b6000816020015111156103e6573481604001510194506103ea565b3494505b5b5b60405180606001604052803481526020014281526020018681525060056000600354815260200190815260200160002060008873ffffffffffffffffffffffffffffffffffffffff1673ffffffffffffffffffffffffffffffffffffffff16815260200190815260200160002060008681526020019081526020016000206000820151816000015560208201518160010155604082015181600201559050506104c8826040015160046000600354815260200190815260200160002060008681526020019081526020016000205461097290919063ffffffff16565b60046000600354815260200190815260200160002060008581526020019081526020016000208190555061052b346004600060035481526020019081526020016000206000878152602001908152602001600020546109bc90919063ffffffff16565b6004600060035481526020019081526020016000206000868152602001908152602001600020819055506003548673ffffffffffffffffffffffffffffffffffffffff167f9dbaf9c586508abc91d6ee4e67d3c7a82ccb09bca5d9fe2c3b690f27b7e0a2563460405161059e9190610d9a565b60405180910390a3505050505050565b6105b6610a11565b73ffffffffffffffffffffffffffffffffffffffff166000809054906101000a900473ffffffffffffffffffffffffffffffffffffffff1673ffffffffffffffffffffffffffffffffffffffff1614610644576040517f08c379a000000000000000000000000000000000000000000000000000000000815260040161063b90610d7a565b60405180910390fd5b600073ffffffffffffffffffffffffffffffffffffffff166000809054906101000a900473ffffffffffffffffffffffffffffffffffffffff1673ffffffffffffffffffffffffffffffffffffffff167f8be0079c531659141344cd1fd0a4f28419497f9722a3daafe3b4186f6b6457e060405160405180910390a360008060006101000a81548173ffffffffffffffffffffffffffffffffffffffff021916908373ffffffffffffffffffffffffffffffffffffffff160217905550565b60015481565b60008060009054906101000a900473ffffffffffffffffffffffffffffffffffffffff16905090565b6004602052816000526040600020602052806000526040600020600091509150505481565b60025481565b5050565b610769610a11565b73ffffffffffffffffffffffffffffffffffffffff166000809054906101000a900473ffffffffffffffffffffffffffffffffffffffff1673ffffffffffffffffffffffffffffffffffffffff16146107f7576040517f08c379a00000000000000000000000000000000000000000000000000000000081526004016107ee90610d7a565b60405180910390fd5b600073ffffffffffffffffffffffffffffffffffffffff168173ffffffffffffffffffffffffffffffffffffffff161415610867576040517f08c379a000000000000000000000000000000000000000000000000000000000815260040161085e90610d1a565b60405180910390fd5b8073ffffffffffffffffffffffffffffffffffffffff166000809054906101000a900473ffffffffffffffffffffffffffffffffffffffff1673ffffffffffffffffffffffffffffffffffffffff167f8be0079c531659141344cd1fd0a4f28419497f9722a3daafe3b4186f6b6457e060405160405180910390a3806000806101000a81548173ffffffffffffffffffffffffffffffffffffffff021916908373ffffffffffffffffffffffffffffffffffffffff16021790555050565b6000429050600254811115610956576001600360008282540192505081905550600154420160028190555050610958565b505b565b60008060014260025403016001540390508091505090565b60006109b483836040518060400160405280601e81526020017f536166654d6174683a207375627472616374696f6e206f766572666c6f770000815250610a19565b905092915050565b600080828401905083811015610a07576040517f08c379a00000000000000000000000000000000000000000000000000000000081526004016109fe90610d3a565b60405180910390fd5b8091505092915050565b600033905090565b6000838311158290610a61576040517f08c379a0000000000000000000000000000000000000000000000000000000008152600401610a589190610cf8565b60405180910390fd5b5060008385039050809150509392505050565b60405180606001604052806000815260200160008152602001600081525090565b600081359050610aa481610e51565b92915050565b600081359050610ab981610e68565b92915050565b600060208284031215610ad157600080fd5b6000610adf84828501610a95565b91505092915050565b60008060408385031215610afb57600080fd5b6000610b0985828601610aaa565b9250506020610b1a85828601610a95565b9150509250929050565b60008060408385031215610b3757600080fd5b6000610b4585828601610aaa565b9250506020610b5685828601610aaa565b9150509250929050565b610b6981610dd1565b82525050565b6000610b7a82610db5565b610b848185610dc0565b9350610b94818560208601610e0d565b610b9d81610e40565b840191505092915050565b6000610bb5602683610dc0565b91507f4f776e61626c653a206e6577206f776e657220697320746865207a65726f206160008301527f64647265737300000000000000000000000000000000000000000000000000006020830152604082019050919050565b6000610c1b601b83610dc0565b91507f536166654d6174683a206164646974696f6e206f766572666c6f7700000000006000830152602082019050919050565b6000610c5b601e83610dc0565b91507f4d75737420636f6e747269627574652076616c756520746f207374616b6500006000830152602082019050919050565b6000610c9b602083610dc0565b91507f4f776e61626c653a2063616c6c6572206973206e6f7420746865206f776e65726000830152602082019050919050565b610cd781610e03565b82525050565b6000602082019050610cf26000830184610b60565b92915050565b60006020820190508181036000830152610d128184610b6f565b905092915050565b60006020820190508181036000830152610d3381610ba8565b9050919050565b60006020820190508181036000830152610d5381610c0e565b9050919050565b60006020820190508181036000830152610d7381610c4e565b9050919050565b60006020820190508181036000830152610d9381610c8e565b9050919050565b6000602082019050610daf6000830184610cce565b92915050565b600081519050919050565b600082825260208201905092915050565b6000610ddc82610de3565b9050919050565b600073ffffffffffffffffffffffffffffffffffffffff82169050919050565b6000819050919050565b60005b83811015610e2b578082015181840152602081019050610e10565b83811115610e3a576000848401525b50505050565b6000601f19601f8301169050919050565b610e5a81610dd1565b8114610e6557600080fd5b50565b610e7181610e03565b8114610e7c57600080fd5b5056fea2646970667358221220c13844c7528373a4c97faf668c58f756905650b6276f5918ee64261b30fe1ca464736f6c63430006000033",
  "source": "//SPDX-License-Identifier: UNLICENSED\n/*\nTrying to avoid need to loop over every players balance\n1) Keep track of total player value + all player values every time stake?\n2) Since we know the end date of the contract, 24H prior to end, start flagging players that play in that window, and therefore will get their entire stake back plus share of broken?\n3) hmm. still need a separate TX with loop to identify broken players?\n*/\npragma solidity >=0.4.21 <0.8.0;\npragma experimental ABIEncoderV2;\n\nimport \"@openzeppelin/contracts/access/Ownable.sol\";\nimport \"@openzeppelin/contracts/math/SafeMath.sol\";\n\n/** \n@title Stamina\n@author Tony Haenn\n@notice Game. Stake every day, get your stakes back, and win a share of those that don't have stamina.\n*/\ncontract Stamina is Ownable {\n  using SafeMath for uint256;\n\n  uint256 public roundLength;\n  uint256 public roundEnd;\n  uint256 public activeRound;\n\n  struct Stake {\n    uint256 amount;\n    uint256 timestamp;\n    uint256 roundTotalAmount;\n  }\n\n  event StakeEvent (\n    address indexed player,\n    uint256 indexed round,\n    uint256 amount\n  );\n\n  event LogEvent (\n    bytes32 txt,\n    uint256 lineNumber\n  );\n\n\n  ///@notice For each round, day, store the total value of all stakes added. As player stakes, move value from Day1 to Day 2 (two operations, decrement total player stake from prior day and add to current day)\n  /// roundNum: {day: balance}\n  mapping(uint256 => mapping(uint256 => uint256)) public roundDayStakeBalance;\n\n  ///@notice Mapping to store all stakes\n  /// activeRound: {player: {dayNum: stake}}\n  mapping(uint256 => mapping(address => mapping(uint256 => Stake))) roundPlayerStakeStorage;\n  /*\n  ///@notice Keep track of how many stakes a player has played for a given round\n  /// roundNum: {player: numStakes}\n  mapping(uint256 => mapping(address => uint256)) public playerStakeCount;\n  */\n  ///@notice roundPlayerCount: Mapping to keep track of player count\n  /// round: numPlayers\n  mapping(uint256 => uint256) private roundPlayerCount;\n\n  \n  /**\n   * @notice Constructor for contract that sets base values for round length, and minimum stake\n  */\n  constructor() public {\n    roundLength = 14 * 1 days;\n    roundEnd = now + roundLength;\n    activeRound = 1;\n  }\n\n  /**\n   * @notice Determines if round is ended. Called during stake.\n   */\n  function endRound() private {\n    uint256 currentTime = block.timestamp;\n    if (currentTime > roundEnd) {\n      activeRound += 1;\n      roundEnd = now + roundLength;\n      return;\n    } \n    return;\n  }\n\n  ///@notice Calculates how many days have elapsed since the round started\n  function currentDayRound() private view returns(uint256) {\n    // Round up (x + y - 1) รท y\n    uint256 daysElapsedRound = roundLength - ((roundEnd - block.timestamp) + 1 days / 1 days);\n    return daysElapsedRound;\n  }\n  /**\n   *  @notice Primary entry point for playing the game. Checks for prior stake and carries forward value if time diff <24H\n   */\n  function stake() public payable {\n    /* DEV Notes\n    Tried to implement below. Blew up gas cost, and apparently has a bug.\n\n    Each time a player stakes\n    0. Figure out if the round is ended?\n    1. Fetch the last stake\n    2. If last stake exists, add prior stake balance to current stake balance, if exiz\n    3. Move total player balance from prior day total to new day total\n    */\n    require(msg.value >= 0 , \"Must contribute value to stake\");\n    //Is the round ended? If so, advance round counter\n    endRound();\n\n    address player = msg.sender;\n    //uint256 playerTotalStakes;\n    uint256 playerRoundTotalValue;\n    uint256 currentDayRoundVal = currentDayRound();\n    uint256 priorDayRoundVal = currentDayRoundVal - 1;\n    //Get prior stake. If doesn't exist, expect 0, else Stake\n    Stake memory priorRoundStake = roundPlayerStakeStorage[activeRound][player][priorDayRoundVal];\n    Stake memory currentRoundPriorStake = roundPlayerStakeStorage[activeRound][player][currentDayRoundVal];\n\n    //Figure out appropriate value to carry forward\n    if(priorRoundStake.timestamp > 0 && currentRoundPriorStake.timestamp > 0) {\n      playerRoundTotalValue = priorRoundStake.roundTotalAmount + currentRoundPriorStake.roundTotalAmount + msg.value;\n    } else if (priorRoundStake.timestamp > 0) {\n      playerRoundTotalValue = priorRoundStake.roundTotalAmount + msg.value;\n    } else if (currentRoundPriorStake.timestamp > 0) {\n      playerRoundTotalValue = currentRoundPriorStake.roundTotalAmount + msg.value;\n    } else {\n      playerRoundTotalValue = msg.value;\n    }\n\n    //Push new stake\n    roundPlayerStakeStorage[activeRound][player][currentDayRoundVal] = Stake({\n        amount :msg.value, \n        timestamp :block.timestamp, \n        roundTotalAmount:playerRoundTotalValue\n        });\n    \n    //Adjust totals\n    //First decrement player total balance from priorday\n    roundDayStakeBalance[activeRound][priorDayRoundVal] = roundDayStakeBalance[activeRound][priorDayRoundVal].sub(priorRoundStake.roundTotalAmount);\n    //Then add player total balance to today\n    roundDayStakeBalance[activeRound][currentDayRoundVal] = roundDayStakeBalance[activeRound][currentDayRoundVal].add(msg.value);\n    emit StakeEvent(player, activeRound, msg.value);\n  }\n  /** \n  * @notice Calculates a players winnings for a given round\n  * @param roundNum round \n  * @param player player address\n  */\n  function playerRoundWinnings(uint256 roundNum, address player) public view {\n    // -- Multiple functions?\n    // Func 1\n    // Get player stakes, determine if any are valid\n    // If not, return 0\n    //for (uint256 index = 0; index < array.length; index++) {\n    //    const element = array[index];\n    //}\n    // Func 2\n    // Determine how many stakes are valid given a set of stakes\n\n    // func 3\n    // Get all stakes and which sets are valid\n    // Player valid stakes / all valid stakes\n    // Return proportion * invalid stakes + player valid \n  }\n  /**\n   *  @notice Allows a player to withdraw winnings\n   *  @param roundNum of round where winnings should be withdrawn\n   */\n  //function playerWithdraw(uint256 roundNum) public  {\n  //  address playerAddress = msg.sender;\n  //\n  //}\n\n  /**\n   * @notice Determines if a stake is valid by comparing to newer stake timestamp. Difference must be less than 24H\n   * @param currentStakeTimestamp stake to validate\n   * @param priorStakeTimestamp prior stake when sorted timestamp descending (newest stake)\n   */\n\n\n}",
  "sourcePath": "/Users/tonyhaenn/development/solidity/stamina/contracts/Stamina.sol",
  "compiler": {
    "name": "solc",
    "version": "0.6.0+commit.26b70077.Emscripten.clang"
  },
  "schemaVersion": "3.2.3",
  "updatedAt": "2020-09-08T00:29:24.346Z",
  "devdoc": {
    "author": "Tony Haenn",
    "methods": {
      "owner()": {
        "details": "Returns the address of the current owner."
      },
      "playerRoundWinnings(uint256,address)": {
        "params": {
          "player": "player address",
          "roundNum": "round "
        }
      },
      "renounceOwnership()": {
        "details": "Leaves the contract without owner. It will not be possible to call `onlyOwner` functions anymore. Can only be called by the current owner.     * NOTE: Renouncing ownership will leave the contract without an owner, thereby removing any functionality that is only available to the owner."
      },
      "transferOwnership(address)": {
        "details": "Transfers ownership of the contract to a new account (`newOwner`). Can only be called by the current owner."
      }
    },
    "title": "Stamina"
  },
  "userdoc": {
    "methods": {
      "constructor": "Constructor for contract that sets base values for round length, and minimum stake",
      "playerRoundWinnings(uint256,address)": {
        "notice": "Calculates a players winnings for a given round"
      },
      "stake()": {
        "notice": "Primary entry point for playing the game. Checks for prior stake and carries forward value if time diff <24H"
      }
    },
    "notice": "Game. Stake every day, get your stakes back, and win a share of those that don't have stamina."
  }
}